{
  "contractName": "InfiniteCrowdsale",
  "abi": [
    {
      "constant": true,
      "inputs": [],
      "name": "rateDecimals",
      "outputs": [
        {
          "name": "",
          "type": "uint256"
        }
      ],
      "payable": false,
      "stateMutability": "view",
      "type": "function"
    },
    {
      "constant": true,
      "inputs": [],
      "name": "rate",
      "outputs": [
        {
          "name": "",
          "type": "uint256"
        }
      ],
      "payable": false,
      "stateMutability": "view",
      "type": "function"
    },
    {
      "constant": true,
      "inputs": [],
      "name": "weiRaised",
      "outputs": [
        {
          "name": "",
          "type": "uint256"
        }
      ],
      "payable": false,
      "stateMutability": "view",
      "type": "function"
    },
    {
      "constant": true,
      "inputs": [],
      "name": "wallet",
      "outputs": [
        {
          "name": "",
          "type": "address"
        }
      ],
      "payable": false,
      "stateMutability": "view",
      "type": "function"
    },
    {
      "constant": true,
      "inputs": [],
      "name": "minContribution",
      "outputs": [
        {
          "name": "",
          "type": "uint256"
        }
      ],
      "payable": false,
      "stateMutability": "view",
      "type": "function"
    },
    {
      "constant": false,
      "inputs": [
        {
          "name": "beneficiary",
          "type": "address"
        }
      ],
      "name": "buyTokens",
      "outputs": [],
      "payable": true,
      "stateMutability": "payable",
      "type": "function"
    },
    {
      "constant": true,
      "inputs": [],
      "name": "token",
      "outputs": [
        {
          "name": "",
          "type": "address"
        }
      ],
      "payable": false,
      "stateMutability": "view",
      "type": "function"
    },
    {
      "inputs": [
        {
          "name": "token",
          "type": "address"
        }
      ],
      "payable": false,
      "stateMutability": "nonpayable",
      "type": "constructor"
    },
    {
      "payable": true,
      "stateMutability": "payable",
      "type": "fallback"
    },
    {
      "anonymous": false,
      "inputs": [
        {
          "indexed": true,
          "name": "purchaser",
          "type": "address"
        },
        {
          "indexed": true,
          "name": "beneficiary",
          "type": "address"
        },
        {
          "indexed": false,
          "name": "value",
          "type": "uint256"
        },
        {
          "indexed": false,
          "name": "amount",
          "type": "uint256"
        }
      ],
      "name": "TokensPurchased",
      "type": "event"
    },
    {
      "constant": true,
      "inputs": [
        {
          "name": "weiAmount",
          "type": "uint256"
        }
      ],
      "name": "getTokenAmount",
      "outputs": [
        {
          "name": "",
          "type": "uint256"
        }
      ],
      "payable": false,
      "stateMutability": "view",
      "type": "function"
    },
    {
      "constant": false,
      "inputs": [],
      "name": "toggleContractActive",
      "outputs": [],
      "payable": false,
      "stateMutability": "nonpayable",
      "type": "function"
    },
    {
      "constant": false,
      "inputs": [],
      "name": "kill",
      "outputs": [],
      "payable": false,
      "stateMutability": "nonpayable",
      "type": "function"
    }
  ],
  "bytecode": "0x60806040526000600460006101000a81548160ff0219169083151502179055506000600460156101000a81548160ff02191690831515021790555034801561004657600080fd5b506040516020806113248339810180604052602081101561006657600080fd5b810190808051906020019092919050505069d3c21bcecceda1000000338260016000806101000a81548160ff02191690831515021790555060008311610114576040517f08c379a00000000000000000000000000000000000000000000000000000000081526004018080602001828103825260148152602001807f43726f776473616c653a2072617465206973203000000000000000000000000081525060200191505060405180910390fd5b600073ffffffffffffffffffffffffffffffffffffffff168273ffffffffffffffffffffffffffffffffffffffff16141561019a576040517f08c379a00000000000000000000000000000000000000000000000000000000081526004018080602001828103825260258152602001806112ff6025913960400191505060405180910390fd5b600073ffffffffffffffffffffffffffffffffffffffff168173ffffffffffffffffffffffffffffffffffffffff161415610220576040517f08c379a00000000000000000000000000000000000000000000000000000000081526004018080602001828103825260248152602001806112db6024913960400191505060405180910390fd5b8260028190555081600160006101000a81548173ffffffffffffffffffffffffffffffffffffffff021916908373ffffffffffffffffffffffffffffffffffffffff16021790555080600060016101000a81548173ffffffffffffffffffffffffffffffffffffffff021916908373ffffffffffffffffffffffffffffffffffffffff16021790555050505033600560006101000a81548173ffffffffffffffffffffffffffffffffffffffff021916908373ffffffffffffffffffffffffffffffffffffffff16021790555050610fde806102fd6000396000f3fe6080604052600436106100915760003560e01c8063521eb27311610059578063521eb27314610152578063aaffadf3146101a9578063c2507ac1146101d4578063ec8ac4d814610223578063fc0c546a1461026757610091565b80631385d24c146100a35780631a3480b5146100ba5780632c4e722e146100e55780634042b66f1461011057806341c0e1b51461013b575b6100a161009c6102be565b6102c6565b005b3480156100af57600080fd5b506100b8610466565b005b3480156100c657600080fd5b506100cf6104ec565b6040518082815260200191505060405180910390f35b3480156100f157600080fd5b506100fa6104f1565b6040518082815260200191505060405180910390f35b34801561011c57600080fd5b506101256104fb565b6040518082815260200191505060405180910390f35b34801561014757600080fd5b50610150610505565b005b34801561015e57600080fd5b50610167610598565b604051808273ffffffffffffffffffffffffffffffffffffffff1673ffffffffffffffffffffffffffffffffffffffff16815260200191505060405180910390f35b3480156101b557600080fd5b506101be6105c2565b6040518082815260200191505060405180910390f35b3480156101e057600080fd5b5061020d600480360360208110156101f757600080fd5b81019080803590602001909291905050506105cd565b6040518082815260200191505060405180910390f35b6102656004803603602081101561023957600080fd5b81019080803573ffffffffffffffffffffffffffffffffffffffff1690602001909291905050506102c6565b005b34801561027357600080fd5b5061027c6105df565b604051808273ffffffffffffffffffffffffffffffffffffffff1673ffffffffffffffffffffffffffffffffffffffff16815260200191505060405180910390f35b600033905090565b6000809054906101000a900460ff16610347576040517f08c379a000000000000000000000000000000000000000000000000000000000815260040180806020018281038252601f8152602001807f5265656e7472616e637947756172643a207265656e7472616e742063616c6c0081525060200191505060405180910390fd5b60008060006101000a81548160ff021916908315150217905550600460159054906101000a900460ff166104495760003490506103848282610608565b600061038f82610676565b90506103a6826003546106bd90919063ffffffff16565b6003819055506103b68382610745565b8273ffffffffffffffffffffffffffffffffffffffff166103d56102be565b73ffffffffffffffffffffffffffffffffffffffff167f6faf93231a456e552dbc9961f58d9713ee4f2e69d15f1975b050ef0911053a7b8484604051808381526020018281526020019250505060405180910390a36104348383610753565b61043c610757565b61044683836107c2565b50505b60016000806101000a81548160ff02191690831515021790555050565b600560009054906101000a900473ffffffffffffffffffffffffffffffffffffffff1673ffffffffffffffffffffffffffffffffffffffff163373ffffffffffffffffffffffffffffffffffffffff16146104c057600080fd5b600460159054906101000a900460ff1615600460156101000a81548160ff021916908315150217905550565b601281565b6000600254905090565b6000600354905090565b600560009054906101000a900473ffffffffffffffffffffffffffffffffffffffff1673ffffffffffffffffffffffffffffffffffffffff163373ffffffffffffffffffffffffffffffffffffffff16141561059657600560009054906101000a900473ffffffffffffffffffffffffffffffffffffffff1673ffffffffffffffffffffffffffffffffffffffff16ff5b565b6000600160009054906101000a900473ffffffffffffffffffffffffffffffffffffffff16905090565b66038d7ea4c6800081565b60006105d882610676565b9050919050565b60008060019054906101000a900473ffffffffffffffffffffffffffffffffffffffff16905090565b61061282826107c6565b66038d7ea4c68000811015610672576040517f08c379a0000000000000000000000000000000000000000000000000000000008152600401808060200182810382526027815260200180610f416027913960400191505060405180910390fd5b5050565b60008061069460026106866104f1565b6108c790919063ffffffff16565b905060006106a18261094d565b905060006106b0838387610a40565b9050809350505050919050565b60008082840190508381101561073b576040517f08c379a000000000000000000000000000000000000000000000000000000000815260040180806020018281038252601b8152602001807f536166654d6174683a206164646974696f6e206f766572666c6f77000000000081525060200191505060405180910390fd5b8091505092915050565b61074f8282610ad5565b5050565b5050565b600160009054906101000a900473ffffffffffffffffffffffffffffffffffffffff1673ffffffffffffffffffffffffffffffffffffffff166108fc349081150290604051600060405180830381858888f193505050501580156107bf573d6000803e3d6000fd5b50565b5050565b600073ffffffffffffffffffffffffffffffffffffffff168273ffffffffffffffffffffffffffffffffffffffff16141561084c576040517f08c379a000000000000000000000000000000000000000000000000000000000815260040180806020018281038252602a815260200180610f89602a913960400191505060405180910390fd5b60008114156108c3576040517f08c379a00000000000000000000000000000000000000000000000000000000081526004018080602001828103825260198152602001807f43726f776473616c653a20776569416d6f756e7420697320300000000000000081525060200191505060405180910390fd5b5050565b6000808314156108da5760009050610947565b60008284029050828482816108eb57fe5b0414610942576040517f08c379a0000000000000000000000000000000000000000000000000000000008152600401808060200182810382526021815260200180610f686021913960400191505060405180910390fd5b809150505b92915050565b6000806109ee6012600a0a6109606105df565b73ffffffffffffffffffffffffffffffffffffffff166318160ddd6040518163ffffffff1660e01b815260040160206040518083038186803b1580156109a557600080fd5b505afa1580156109b9573d6000803e3d6000fd5b505050506040513d60208110156109cf57600080fd5b81019080805190602001909291905050506108c790919063ffffffff16565b905060006012600a0a90506000610a3385610a2584610a176002886108c790919063ffffffff16565b6106bd90919063ffffffff16565b610c1490919063ffffffff16565b9050809350505050919050565b600080610a4e858585610c5e565b90506000610a696012600a0a836108c790919063ffffffff16565b90506000610aad87610a9f6002610a918a610a8388610cea565b610d7090919063ffffffff16565b610c1490919063ffffffff16565b6108c790919063ffffffff16565b9050610ac66012600a0a82610c1490919063ffffffff16565b90508093505050509392505050565b610add6105df565b73ffffffffffffffffffffffffffffffffffffffff166340c10f1983836040518363ffffffff1660e01b8152600401808373ffffffffffffffffffffffffffffffffffffffff1673ffffffffffffffffffffffffffffffffffffffff16815260200182815260200192505050602060405180830381600087803b158015610b6357600080fd5b505af1158015610b77573d6000803e3d6000fd5b505050506040513d6020811015610b8d57600080fd5b8101908080519060200190929190505050610c10576040517f08c379a000000000000000000000000000000000000000000000000000000000815260040180806020018281038252601f8152602001807f4d696e74656443726f776473616c653a206d696e74696e67206661696c65640081525060200191505060405180910390fd5b5050565b6000610c5683836040518060400160405280601a81526020017f536166654d6174683a206469766973696f6e206279207a65726f000000000000815250610dba565b905092915050565b600080610c8a6012600a0a610c7c86876108c790919063ffffffff16565b610c1490919063ffffffff16565b90506000610ca56012600a0a856108c790919063ffffffff16565b9050610cdf610cd087610cc26004856108c790919063ffffffff16565b610c1490919063ffffffff16565b836106bd90919063ffffffff16565b925050509392505050565b600080610d146002610d066001866106bd90919063ffffffff16565b610c1490919063ffffffff16565b905060008390505b80821015610d6657819050610d5f6002610d5184610d438689610c1490919063ffffffff16565b6106bd90919063ffffffff16565b610c1490919063ffffffff16565b9150610d1c565b8092505050919050565b6000610db283836040518060400160405280601e81526020017f536166654d6174683a207375627472616374696f6e206f766572666c6f770000815250610e80565b905092915050565b60008083118290610e66576040517f08c379a00000000000000000000000000000000000000000000000000000000081526004018080602001828103825283818151815260200191508051906020019080838360005b83811015610e2b578082015181840152602081019050610e10565b50505050905090810190601f168015610e585780820380516001836020036101000a031916815260200191505b509250505060405180910390fd5b506000838581610e7257fe5b049050809150509392505050565b6000838311158290610f2d576040517f08c379a00000000000000000000000000000000000000000000000000000000081526004018080602001828103825283818151815260200191508051906020019080838360005b83811015610ef2578082015181840152602081019050610ed7565b50505050905090810190601f168015610f1f5780820380516001836020036101000a031916815260200191505b509250505060405180910390fd5b506000838503905080915050939250505056fe436f6e747269627574696f6e206d757374206265206174206c6561737420302e30303120455448536166654d6174683a206d756c7469706c69636174696f6e206f766572666c6f7743726f776473616c653a2062656e656669636961727920697320746865207a65726f2061646472657373a165627a7a723058201aeb24db5c06ceddf69277856a6394c1b4b2c859cfd189a9abe02bb5d77f398a002943726f776473616c653a20746f6b656e20697320746865207a65726f206164647265737343726f776473616c653a2077616c6c657420697320746865207a65726f2061646472657373",
  "source": "// SPDX-License-Identifier: GPL-3.0\n\npragma solidity ^0.5.0;\n\nimport \"@openzeppelin/contracts/crowdsale/emission/MintedCrowdsale.sol\";\nimport \"@openzeppelin/contracts/token/ERC20/IERC20.sol\";\nimport \"@openzeppelin/contracts/math/SafeMath.sol\";\nimport \"@openzeppelin/contracts/token/ERC20/SafeERC20.sol\";\n\n/// @title A crowdsale contract for INFINITE token that allows the purchase and minting of new tokens\n/// @author David Koh\ncontract InfiniteCrowdsale is MintedCrowdsale {\n    using SafeMath for uint256;\n    using SafeERC20 for IERC20;\n\n    uint256 public constant minContribution = 1000000000000000;\n    uint256 public constant rateDecimals = 18;\n    uint256 private constant rateDecimalsMultiply = 10**rateDecimals;\n\n    bool private stopped = false;\n    address private _owner;\n\n    /// @dev an authorization modifier\n    modifier isAdmin() {\n        if (msg.sender != _owner) {\n            revert();\n        }\n        _;\n    }\n\n    constructor(IERC20 token)\n        public\n        Crowdsale(1000000000000000000000000, msg.sender, token)\n    {\n        _owner = msg.sender;\n    }\n\n    /// @return the token amount outstanding\n    function getTokenAmount(uint256 weiAmount) external view returns (uint256) {\n        return _getTokenAmount(weiAmount);\n    }\n\n    function _preValidatePurchase(address beneficiary, uint256 weiAmount)\n        internal\n        view\n    {\n        super._preValidatePurchase(beneficiary, weiAmount);\n        require(\n            weiAmount >= minContribution,\n            \"Contribution must be at least 0.001 ETH\"\n        );\n    }\n\n    /// @return the token amount outstanding\n    function _getTokenAmount(uint256 weiAmount)\n        internal\n        view\n        returns (uint256)\n    {\n        uint256 aInverse = rate().mul(2);\n        uint256 b = getLinearCoefficient(aInverse);\n        uint256 tokenAmount = getRoot(aInverse, b, weiAmount);\n\n        return tokenAmount;\n    }\n\n    /// @return alinearcoefficient\n    function getLinearCoefficient(uint256 aInverse)\n        private\n        view\n        returns (uint256)\n    {\n        // Adjust for decimal places\n        uint256 start = token().totalSupply().mul(rateDecimalsMultiply);\n        uint256 oneDecimals = rateDecimalsMultiply;\n\n        uint256 b = start.mul(2).add(oneDecimals).div(aInverse);\n\n        return b;\n    }\n\n    function getRoot(\n        uint256 aInverse,\n        uint256 b,\n        uint256 cNegative\n    ) private pure returns (uint256) {\n        uint256 discriminant = getDiscriminant(aInverse, b, cNegative);\n\n        // Adjust for decimal places\n        uint256 discriminantDecimals = discriminant.mul(rateDecimalsMultiply);\n\n        uint256 root = sqrt(discriminantDecimals).sub(b).div(2).mul(aInverse);\n\n        // Adjust for decimal places\n        root = root.div(rateDecimalsMultiply);\n\n        return root;\n    }\n\n    function getDiscriminant(\n        uint256 aInverse,\n        uint256 b,\n        uint256 cNegative\n    ) private pure returns (uint256) {\n        // Adjust for decimal places\n        uint256 bSquaredDecimals = b.mul(b).div(rateDecimalsMultiply);\n        uint256 cNegativeDecimals = cNegative.mul(rateDecimalsMultiply);\n\n        return bSquaredDecimals.add(cNegativeDecimals.mul(4).div(aInverse));\n    }\n\n    function sqrt(uint256 x) private pure returns (uint256) {\n        uint256 z = x.add(1).div(2);\n        uint256 y = x;\n\n        while (z < y) {\n            y = z;\n            z = x.div(z).add(z).div(2);\n        }\n\n        return y;\n    }\n\n    function toggleContractActive() public isAdmin {\n        // You can add an additional modifier that restricts stopping a contract to be based on another action, such as a vote of users\n        stopped = !stopped;\n    }\n\n    /// @notice A safety feature to safely stop the contract in an emergency\n    modifier stopInEmergency {\n        if (!stopped) _;\n    }\n\n    // function buyTokens(address beneficiary)\n    //     public\n    //     override\n    //     payable\n    //     stopInEmergency\n    // {\n    //     super.buyTokens(beneficiary);\n    // }\n\n    /// @notice A safety feature to safely kill the contract\n    function kill() public {\n        if (msg.sender == _owner) selfdestruct(address(uint160(_owner))); // cast owner to address payable\n    }\n}\n",
  "sourcePath": "/Users/davidkoh/Documents/Main Files/0 Projects/0 Critical Crypto/project-y/contracts/InfiniteCrowdsale.sol",
  "compiler": {
    "name": "solc",
    "version": "0.5.7+commit.6da8b019.Emscripten.clang"
  },
  "schemaVersion": "3.2.5",
  "updatedAt": "2020-11-30T20:50:08.273Z",
  "devdoc": {
    "author": "David Koh",
    "methods": {
      "buyTokens(address)": {
        "details": "low level token purchase ***DO NOT OVERRIDE*** This function has a non-reentrancy guard, so it shouldn't be called by another `nonReentrant` function.",
        "params": {
          "beneficiary": "Recipient of the token purchase"
        }
      },
      "getTokenAmount(uint256)": {
        "return": "the token amount outstanding"
      },
      "rate()": {
        "return": "the number of token units a buyer gets per wei."
      },
      "token()": {
        "return": "the token being sold."
      },
      "wallet()": {
        "return": "the address where funds are collected."
      },
      "weiRaised()": {
        "return": "the amount of wei raised."
      }
    },
    "title": "A crowdsale contract for INFINITE token that allows the purchase and minting of new tokens"
  },
  "userdoc": {
    "methods": {
      "kill()": {
        "notice": "A safety feature to safely kill the contract"
      }
    }
  }
}